:020000040000FA
:020000000528D1
:040002000034003492
:06000A00640083160317D9
:10001000890188120313860109148312860157206F
:100020006400091814281C28FF3086003D20640055
:1000300086013D2064000F2806144A20061086140D
:1000400064004A208610061564004A2006118615B1
:1000500064004A208611061664004A20061286169D
:1000600064004A208612061764004A200613861789
:1000700064004A20861364000F28FF30A000F5308A
:10008000A1000430A200A20B4328A10B4128A00B21
:100090003F280800C830A3003230A4000A30A50071
:1000A000A50B5028A40B4E28A30B4C280800C830E1
:1000B000A6001930A7000230A800A80B5D28A70BE6
:0800C0005B28A60B592808007B
:00000001FF
