:020000040000FA
:020000000528D1
:040002000034003492
:06000A00640083160317D9
:100010008901881203138601091483128601412085
:100020006400091814281C28FF308600272064006B
:100030008601272064000F280130860034206400E8
:1000400009180F28860D031C1E2886011C28FF3066
:10005000A000F530A1000430A200A20B2D28A10BB6
:100060002B28A00B29280800C830A3003230A40098
:100070000A30A500A50B3A28A40B3828A30B362874
:100080000800C830A6001930A7000230A800A80B4D
:0C0090004728A70B4528A60B43280800B2
:00000001FF
