:020000040000FA
:020000000528D1
:040002000034003492
:06000A00831603178901B3
:100010008812031386010914831286015C200918D3
:1000200012281828FF3086004220860142200E2820
:1000300006144F2009180E28061086144F200918A0
:100040000E28861006154F2009180E280611861551
:100050004F2009180E28861106164F2009180E2861
:10006000061286164F2009180E28861206174F20F2
:1000700009180E28061386174F2009180E28861314
:1000800009180E28FF30A000F530A1000430A200AE
:10009000A20B4828A10B4628A00B44280800C83012
:1000A000A3003230A4000A30A500A50B5528A40BEC
:1000B0005328A30B51280800C830A6001930A70008
:1000C0000230A800A80B6228A70B6028A60B5E28A8
:0200D000080026
:02400E00F12F90
:00000001FF
